{
  "_format": "hh-sol-artifact-1",
  "contractName": "DevTrust",
  "sourceName": "contracts/DevTrust.sol",
  "abi": [
    {
      "inputs": [
        {
          "internalType": "string",
          "name": "_trustName",
          "type": "string"
        }
      ],
      "stateMutability": "nonpayable",
      "type": "constructor"
    },
    {
      "anonymous": false,
      "inputs": [
        {
          "indexed": false,
          "internalType": "address",
          "name": "newOracle",
          "type": "address"
        }
      ],
      "name": "OracleUpdated",
      "type": "event"
    },
    {
      "anonymous": false,
      "inputs": [
        {
          "indexed": true,
          "internalType": "address",
          "name": "user",
          "type": "address"
        },
        {
          "indexed": false,
          "internalType": "string",
          "name": "data",
          "type": "string"
        },
        {
          "indexed": false,
          "internalType": "uint256",
          "name": "timestamp",
          "type": "uint256"
        }
      ],
      "name": "RecordAdded",
      "type": "event"
    },
    {
      "anonymous": false,
      "inputs": [
        {
          "indexed": true,
          "internalType": "address",
          "name": "developer",
          "type": "address"
        },
        {
          "indexed": false,
          "internalType": "uint256",
          "name": "amount",
          "type": "uint256"
        }
      ],
      "name": "Rewarded",
      "type": "event"
    },
    {
      "anonymous": false,
      "inputs": [
        {
          "indexed": true,
          "internalType": "address",
          "name": "developer",
          "type": "address"
        },
        {
          "indexed": false,
          "internalType": "uint256",
          "name": "amount",
          "type": "uint256"
        }
      ],
      "name": "Slashed",
      "type": "event"
    },
    {
      "anonymous": false,
      "inputs": [
        {
          "indexed": true,
          "internalType": "address",
          "name": "user",
          "type": "address"
        },
        {
          "indexed": false,
          "internalType": "uint256",
          "name": "amount",
          "type": "uint256"
        }
      ],
      "name": "Staked",
      "type": "event"
    },
    {
      "inputs": [
        {
          "internalType": "address",
          "name": "_user",
          "type": "address"
        },
        {
          "internalType": "string",
          "name": "_data",
          "type": "string"
        }
      ],
      "name": "addRecord",
      "outputs": [],
      "stateMutability": "nonpayable",
      "type": "function"
    },
    {
      "inputs": [],
      "name": "creationTime",
      "outputs": [
        {
          "internalType": "uint256",
          "name": "",
          "type": "uint256"
        }
      ],
      "stateMutability": "view",
      "type": "function"
    },
    {
      "inputs": [
        {
          "internalType": "uint256",
          "name": "index",
          "type": "uint256"
        }
      ],
      "name": "getRecord",
      "outputs": [
        {
          "internalType": "address",
          "name": "user",
          "type": "address"
        },
        {
          "internalType": "string",
          "name": "data",
          "type": "string"
        },
        {
          "internalType": "uint256",
          "name": "timestamp",
          "type": "uint256"
        }
      ],
      "stateMutability": "view",
      "type": "function"
    },
    {
      "inputs": [],
      "name": "getTotalRecords",
      "outputs": [
        {
          "internalType": "uint256",
          "name": "",
          "type": "uint256"
        }
      ],
      "stateMutability": "view",
      "type": "function"
    },
    {
      "inputs": [],
      "name": "getTrustInfo",
      "outputs": [
        {
          "internalType": "string",
          "name": "",
          "type": "string"
        },
        {
          "internalType": "uint256",
          "name": "",
          "type": "uint256"
        }
      ],
      "stateMutability": "view",
      "type": "function"
    },
    {
      "inputs": [
        {
          "internalType": "address",
          "name": "user",
          "type": "address"
        }
      ],
      "name": "isStaked",
      "outputs": [
        {
          "internalType": "bool",
          "name": "",
          "type": "bool"
        }
      ],
      "stateMutability": "view",
      "type": "function"
    },
    {
      "inputs": [],
      "name": "oracle",
      "outputs": [
        {
          "internalType": "address",
          "name": "",
          "type": "address"
        }
      ],
      "stateMutability": "view",
      "type": "function"
    },
    {
      "inputs": [],
      "name": "owner",
      "outputs": [
        {
          "internalType": "address",
          "name": "",
          "type": "address"
        }
      ],
      "stateMutability": "view",
      "type": "function"
    },
    {
      "inputs": [
        {
          "internalType": "uint256",
          "name": "",
          "type": "uint256"
        }
      ],
      "name": "records",
      "outputs": [
        {
          "internalType": "address",
          "name": "user",
          "type": "address"
        },
        {
          "internalType": "string",
          "name": "data",
          "type": "string"
        },
        {
          "internalType": "uint256",
          "name": "timestamp",
          "type": "uint256"
        }
      ],
      "stateMutability": "view",
      "type": "function"
    },
    {
      "inputs": [
        {
          "internalType": "address",
          "name": "developer",
          "type": "address"
        }
      ],
      "name": "reward",
      "outputs": [],
      "stateMutability": "payable",
      "type": "function"
    },
    {
      "inputs": [
        {
          "internalType": "address",
          "name": "_oracle",
          "type": "address"
        }
      ],
      "name": "setOracle",
      "outputs": [],
      "stateMutability": "nonpayable",
      "type": "function"
    },
    {
      "inputs": [
        {
          "internalType": "address",
          "name": "developer",
          "type": "address"
        }
      ],
      "name": "slash",
      "outputs": [],
      "stateMutability": "nonpayable",
      "type": "function"
    },
    {
      "inputs": [],
      "name": "stake",
      "outputs": [],
      "stateMutability": "payable",
      "type": "function"
    },
    {
      "inputs": [
        {
          "internalType": "address",
          "name": "",
          "type": "address"
        }
      ],
      "name": "stakes",
      "outputs": [
        {
          "internalType": "uint256",
          "name": "",
          "type": "uint256"
        }
      ],
      "stateMutability": "view",
      "type": "function"
    },
    {
      "inputs": [],
      "name": "trustName",
      "outputs": [
        {
          "internalType": "string",
          "name": "",
          "type": "string"
        }
      ],
      "stateMutability": "view",
      "type": "function"
    }
  ],
  "bytecode": "0x608060405234801561001057600080fd5b5060405161203a38038061203a83398181016040528101906100329190610246565b806000908161004191906104b0565b504260018190555033600260006101000a81548173ffffffffffffffffffffffffffffffffffffffff021916908373ffffffffffffffffffffffffffffffffffffffff16021790555033600360006101000a81548173ffffffffffffffffffffffffffffffffffffffff021916908373ffffffffffffffffffffffffffffffffffffffff16021790555050610582565b6000604051905090565b600080fd5b600080fd5b600080fd5b600080fd5b6000601f19601f8301169050919050565b7f4e487b7100000000000000000000000000000000000000000000000000000000600052604160045260246000fd5b610138826100ef565b810181811067ffffffffffffffff8211171561015757610156610100565b5b80604052505050565b600061016a6100d1565b9050610176828261012f565b919050565b600067ffffffffffffffff82111561019657610195610100565b5b61019f826100ef565b9050602081019050919050565b60005b838110156101ca5780820151818401526020810190506101af565b60008484015250505050565b60006101e96101e48461017b565b610160565b905082815260208101848484011115610205576102046100ea565b5b6102108482856101ac565b509392505050565b600082601f83011261022d5761022c6100e5565b5b815161023d8482602086016101d6565b91505092915050565b60006020828403121561025c5761025b6100db565b5b600082015167ffffffffffffffff81111561027a576102796100e0565b5b61028684828501610218565b91505092915050565b600081519050919050565b7f4e487b7100000000000000000000000000000000000000000000000000000000600052602260045260246000fd5b600060028204905060018216806102e157607f821691505b6020821081036102f4576102f361029a565b5b50919050565b60008190508160005260206000209050919050565b60006020601f8301049050919050565b600082821b905092915050565b60006008830261035c7fffffffffffffffffffffffffffffffffffffffffffffffffffffffffffffffff8261031f565b610366868361031f565b95508019841693508086168417925050509392505050565b6000819050919050565b6000819050919050565b60006103ad6103a86103a38461037e565b610388565b61037e565b9050919050565b6000819050919050565b6103c783610392565b6103db6103d3826103b4565b84845461032c565b825550505050565b600090565b6103f06103e3565b6103fb8184846103be565b505050565b5b8181101561041f576104146000826103e8565b600181019050610401565b5050565b601f82111561046457610435816102fa565b61043e8461030f565b8101602085101561044d578190505b6104616104598561030f565b830182610400565b50505b505050565b600082821c905092915050565b600061048760001984600802610469565b1980831691505092915050565b60006104a08383610476565b9150826002028217905092915050565b6104b98261028f565b67ffffffffffffffff8111156104d2576104d1610100565b5b6104dc82546102c9565b6104e7828285610423565b600060209050601f83116001811461051a5760008415610508578287015190505b6105128582610494565b86555061057a565b601f198416610528866102fa565b60005b828110156105505784890151825560018201915060208501945060208101905061052b565b8683101561056d5784890151610569601f891682610476565b8355505b6001600288020188555050505b505050505050565b611aa9806105916000396000f3fe6080604052600436106100e85760003560e01c80636353586b1161008a5780638d17016e116100595780638d17016e146102de5780638da5cb5b1461030a578063c96be4cb14610335578063d8270dce1461035e576100e8565b80636353586b1461024557806366858ec8146102615780637adbf9731461028a5780637dc0d1d0146102b3576100e8565b806325a42767116100c657806325a427671461019457806334461067146101bf5780633a4b66f1146101fe5780636177fd1814610208576100e8565b806303e9e609146100ed5780630aeacb5e1461012c57806316934fc414610157575b600080fd5b3480156100f957600080fd5b50610114600480360381019061010f919061101c565b610389565b60405161012393929190611129565b60405180910390f35b34801561013857600080fd5b506101416104c4565b60405161014e9190611167565b60405180910390f35b34801561016357600080fd5b5061017e600480360381019061017991906111ae565b6104d1565b60405161018b9190611167565b60405180910390f35b3480156101a057600080fd5b506101a96104e9565b6040516101b691906111db565b60405180910390f35b3480156101cb57600080fd5b506101e660048036038101906101e1919061101c565b610577565b6040516101f593929190611129565b60405180910390f35b610206610659565b005b34801561021457600080fd5b5061022f600480360381019061022a91906111ae565b610742565b60405161023c9190611218565b60405180910390f35b61025f600480360381019061025a91906111ae565b61078d565b005b34801561026d57600080fd5b5061028860048036038101906102839190611368565b6109d2565b005b34801561029657600080fd5b506102b160048036038101906102ac91906111ae565b610bd3565b005b3480156102bf57600080fd5b506102c8610cde565b6040516102d591906113c4565b60405180910390f35b3480156102ea57600080fd5b506102f3610d04565b6040516103019291906113df565b60405180910390f35b34801561031657600080fd5b5061031f610da0565b60405161032c91906113c4565b60405180910390f35b34801561034157600080fd5b5061035c600480360381019061035791906111ae565b610dc6565b005b34801561036a57600080fd5b50610373610fcc565b6040516103809190611167565b60405180910390f35b60006060600060048054905084106103d6576040517f08c379a00000000000000000000000000000000000000000000000000000000081526004016103cd9061145b565b60405180910390fd5b6000600485815481106103ec576103eb61147b565b5b906000526020600020906003020190508060000160009054906101000a900473ffffffffffffffffffffffffffffffffffffffff16816001018260020154818054610436906114d9565b80601f0160208091040260200160405190810160405280929190818152602001828054610462906114d9565b80156104af5780601f10610484576101008083540402835291602001916104af565b820191906000526020600020905b81548152906001019060200180831161049257829003601f168201915b50505050509150935093509350509193909250565b6000600480549050905090565b60056020528060005260406000206000915090505481565b600080546104f6906114d9565b80601f0160208091040260200160405190810160405280929190818152602001828054610522906114d9565b801561056f5780601f106105445761010080835404028352916020019161056f565b820191906000526020600020905b81548152906001019060200180831161055257829003601f168201915b505050505081565b6004818154811061058757600080fd5b90600052602060002090600302016000915090508060000160009054906101000a900473ffffffffffffffffffffffffffffffffffffffff16908060010180546105d0906114d9565b80601f01602080910402602001604051908101604052809291908181526020018280546105fc906114d9565b80156106495780601f1061061e57610100808354040283529160200191610649565b820191906000526020600020905b81548152906001019060200180831161062c57829003601f168201915b5050505050908060020154905083565b6000341161069c576040517f08c379a000000000000000000000000000000000000000000000000000000000815260040161069390611556565b60405180910390fd5b34600560003373ffffffffffffffffffffffffffffffffffffffff1673ffffffffffffffffffffffffffffffffffffffff16815260200190815260200160002060008282546106eb91906115a5565b925050819055503373ffffffffffffffffffffffffffffffffffffffff167f9e71bc8eea02a63969f509818f2dafb9254532904319f9dbda79b67bd34a5f3d346040516107389190611167565b60405180910390a2565b600080600560008473ffffffffffffffffffffffffffffffffffffffff1673ffffffffffffffffffffffffffffffffffffffff16815260200190815260200160002054119050919050565b600260009054906101000a900473ffffffffffffffffffffffffffffffffffffffff1673ffffffffffffffffffffffffffffffffffffffff163373ffffffffffffffffffffffffffffffffffffffff1614806108365750600360009054906101000a900473ffffffffffffffffffffffffffffffffffffffff1673ffffffffffffffffffffffffffffffffffffffff163373ffffffffffffffffffffffffffffffffffffffff16145b610875576040517f08c379a000000000000000000000000000000000000000000000000000000000815260040161086c90611625565b60405180910390fd5b6000600560008373ffffffffffffffffffffffffffffffffffffffff1673ffffffffffffffffffffffffffffffffffffffff16815260200190815260200160002054116108f7576040517f08c379a00000000000000000000000000000000000000000000000000000000081526004016108ee90611691565b60405180910390fd5b6000341161093a576040517f08c379a0000000000000000000000000000000000000000000000000000000008152600401610931906116fd565b60405180910390fd5b8073ffffffffffffffffffffffffffffffffffffffff166108fc349081150290604051600060405180830381858888f19350505050158015610980573d6000803e3d6000fd5b508073ffffffffffffffffffffffffffffffffffffffff167fb3b7a071186534c03b40695710096f289fd4ed6c1a374aff0bb648955e4fe563346040516109c79190611167565b60405180910390a250565b600260009054906101000a900473ffffffffffffffffffffffffffffffffffffffff1673ffffffffffffffffffffffffffffffffffffffff163373ffffffffffffffffffffffffffffffffffffffff161480610a7b5750600360009054906101000a900473ffffffffffffffffffffffffffffffffffffffff1673ffffffffffffffffffffffffffffffffffffffff163373ffffffffffffffffffffffffffffffffffffffff16145b610aba576040517f08c379a0000000000000000000000000000000000000000000000000000000008152600401610ab190611625565b60405180910390fd5b600460405180606001604052808473ffffffffffffffffffffffffffffffffffffffff16815260200183815260200142815250908060018154018082558091505060019003906000526020600020906003020160009091909190915060008201518160000160006101000a81548173ffffffffffffffffffffffffffffffffffffffff021916908373ffffffffffffffffffffffffffffffffffffffff1602179055506020820151816001019081610b7291906118c9565b506040820151816002015550508173ffffffffffffffffffffffffffffffffffffffff167f4b92a41aaac1d087148ec39a65a261cc6ac88ed7765dece5374bb3893fcfcf9e8242604051610bc79291906113df565b60405180910390a25050565b600260009054906101000a900473ffffffffffffffffffffffffffffffffffffffff1673ffffffffffffffffffffffffffffffffffffffff163373ffffffffffffffffffffffffffffffffffffffff1614610c63576040517f08c379a0000000000000000000000000000000000000000000000000000000008152600401610c5a906119e7565b60405180910390fd5b80600360006101000a81548173ffffffffffffffffffffffffffffffffffffffff021916908373ffffffffffffffffffffffffffffffffffffffff1602179055507f3df77beb5db05fcdd70a30fc8adf3f83f9501b68579455adbd100b818094039481604051610cd391906113c4565b60405180910390a150565b600360009054906101000a900473ffffffffffffffffffffffffffffffffffffffff1681565b6060600080600154818054610d18906114d9565b80601f0160208091040260200160405190810160405280929190818152602001828054610d44906114d9565b8015610d915780601f10610d6657610100808354040283529160200191610d91565b820191906000526020600020905b815481529060010190602001808311610d7457829003601f168201915b50505050509150915091509091565b600260009054906101000a900473ffffffffffffffffffffffffffffffffffffffff1681565b600260009054906101000a900473ffffffffffffffffffffffffffffffffffffffff1673ffffffffffffffffffffffffffffffffffffffff163373ffffffffffffffffffffffffffffffffffffffff161480610e6f5750600360009054906101000a900473ffffffffffffffffffffffffffffffffffffffff1673ffffffffffffffffffffffffffffffffffffffff163373ffffffffffffffffffffffffffffffffffffffff16145b610eae576040517f08c379a0000000000000000000000000000000000000000000000000000000008152600401610ea590611625565b60405180910390fd5b6000600560008373ffffffffffffffffffffffffffffffffffffffff1673ffffffffffffffffffffffffffffffffffffffff16815260200190815260200160002054905060008111610f35576040517f08c379a0000000000000000000000000000000000000000000000000000000008152600401610f2c90611a53565b60405180910390fd5b6000600560008473ffffffffffffffffffffffffffffffffffffffff1673ffffffffffffffffffffffffffffffffffffffff168152602001908152602001600020819055508173ffffffffffffffffffffffffffffffffffffffff167f4ed05e9673c26d2ed44f7ef6a7f2942df0ee3b5e1e17db4b99f9dcd261a339cd82604051610fc09190611167565b60405180910390a25050565b60015481565b6000604051905090565b600080fd5b600080fd5b6000819050919050565b610ff981610fe6565b811461100457600080fd5b50565b60008135905061101681610ff0565b92915050565b60006020828403121561103257611031610fdc565b5b600061104084828501611007565b91505092915050565b600073ffffffffffffffffffffffffffffffffffffffff82169050919050565b600061107482611049565b9050919050565b61108481611069565b82525050565b600081519050919050565b600082825260208201905092915050565b60005b838110156110c45780820151818401526020810190506110a9565b60008484015250505050565b6000601f19601f8301169050919050565b60006110ec8261108a565b6110f68185611095565b93506111068185602086016110a6565b61110f816110d0565b840191505092915050565b61112381610fe6565b82525050565b600060608201905061113e600083018661107b565b818103602083015261115081856110e1565b905061115f604083018461111a565b949350505050565b600060208201905061117c600083018461111a565b92915050565b61118b81611069565b811461119657600080fd5b50565b6000813590506111a881611182565b92915050565b6000602082840312156111c4576111c3610fdc565b5b60006111d284828501611199565b91505092915050565b600060208201905081810360008301526111f581846110e1565b905092915050565b60008115159050919050565b611212816111fd565b82525050565b600060208201905061122d6000830184611209565b92915050565b600080fd5b600080fd5b7f4e487b7100000000000000000000000000000000000000000000000000000000600052604160045260246000fd5b611275826110d0565b810181811067ffffffffffffffff821117156112945761129361123d565b5b80604052505050565b60006112a7610fd2565b90506112b3828261126c565b919050565b600067ffffffffffffffff8211156112d3576112d261123d565b5b6112dc826110d0565b9050602081019050919050565b82818337600083830152505050565b600061130b611306846112b8565b61129d565b90508281526020810184848401111561132757611326611238565b5b6113328482856112e9565b509392505050565b600082601f83011261134f5761134e611233565b5b813561135f8482602086016112f8565b91505092915050565b6000806040838503121561137f5761137e610fdc565b5b600061138d85828601611199565b925050602083013567ffffffffffffffff8111156113ae576113ad610fe1565b5b6113ba8582860161133a565b9150509250929050565b60006020820190506113d9600083018461107b565b92915050565b600060408201905081810360008301526113f981856110e1565b9050611408602083018461111a565b9392505050565b7f496e76616c696420696e64657800000000000000000000000000000000000000600082015250565b6000611445600d83611095565b91506114508261140f565b602082019050919050565b6000602082019050818103600083015261147481611438565b9050919050565b7f4e487b7100000000000000000000000000000000000000000000000000000000600052603260045260246000fd5b7f4e487b7100000000000000000000000000000000000000000000000000000000600052602260045260246000fd5b600060028204905060018216806114f157607f821691505b602082108103611504576115036114aa565b5b50919050565b7f5374616b65206d7573742062652067726561746572207468616e203000000000600082015250565b6000611540601c83611095565b915061154b8261150a565b602082019050919050565b6000602082019050818103600083015261156f81611533565b9050919050565b7f4e487b7100000000000000000000000000000000000000000000000000000000600052601160045260246000fd5b60006115b082610fe6565b91506115bb83610fe6565b92508282019050808211156115d3576115d2611576565b5b92915050565b7f4e6f7420617574686f72697a6564000000000000000000000000000000000000600082015250565b600061160f600e83611095565b915061161a826115d9565b602082019050919050565b6000602082019050818103600083015261163e81611602565b9050919050565b7f446576656c6f706572206e6f74207374616b6564000000000000000000000000600082015250565b600061167b601483611095565b915061168682611645565b602082019050919050565b600060208201905081810360008301526116aa8161166e565b9050919050565b7f526577617264206d7573742062652067726561746572207468616e2030000000600082015250565b60006116e7601d83611095565b91506116f2826116b1565b602082019050919050565b60006020820190508181036000830152611716816116da565b9050919050565b60008190508160005260206000209050919050565b60006020601f8301049050919050565b600082821b905092915050565b60006008830261177f7fffffffffffffffffffffffffffffffffffffffffffffffffffffffffffffffff82611742565b6117898683611742565b95508019841693508086168417925050509392505050565b6000819050919050565b60006117c66117c16117bc84610fe6565b6117a1565b610fe6565b9050919050565b6000819050919050565b6117e0836117ab565b6117f46117ec826117cd565b84845461174f565b825550505050565b600090565b6118096117fc565b6118148184846117d7565b505050565b5b818110156118385761182d600082611801565b60018101905061181a565b5050565b601f82111561187d5761184e8161171d565b61185784611732565b81016020851015611866578190505b61187a61187285611732565b830182611819565b50505b505050565b600082821c905092915050565b60006118a060001984600802611882565b1980831691505092915050565b60006118b9838361188f565b9150826002028217905092915050565b6118d28261108a565b67ffffffffffffffff8111156118eb576118ea61123d565b5b6118f582546114d9565b61190082828561183c565b600060209050601f8311600181146119335760008415611921578287015190505b61192b85826118ad565b865550611993565b601f1984166119418661171d565b60005b8281101561196957848901518255600182019150602085019450602081019050611944565b868310156119865784890151611982601f89168261188f565b8355505b6001600288020188555050505b505050505050565b7f4f6e6c79206f776e65722063616e20736574206f7261636c6500000000000000600082015250565b60006119d1601983611095565b91506119dc8261199b565b602082019050919050565b60006020820190508181036000830152611a00816119c4565b9050919050565b7f4e6f207374616b6520746f20736c617368000000000000000000000000000000600082015250565b6000611a3d601183611095565b9150611a4882611a07565b602082019050919050565b60006020820190508181036000830152611a6c81611a30565b905091905056fea264697066735822122065b0a0eaf7a9023a33d02b939e0e19e0574a541840b5330daf6850e2e860dc8c64736f6c634300081c0033",
  "linkReferences": {},
  "deployedLinkReferences": {}
}